:020000020000FC
:02000000FFC03F
:100200000FEF0DBF0FE30EBFC0E0D0E208E0009398
:1002100065060093610604E0009362062AD022D0AE
:1002200012D0FECFFFCF1F931091A10915FFFCCF75
:100230000093A0091F9108950091A10907FFFCCF29
:100240000091A0090895F8DF083079F00D3011F021
:100250000993089500E0088305D009910030F9F270
:10026000E2DFFBCFC0E0D0E208950F930A910F9137
:1002700008950F9308E10093A40903E30093A509EF
:100280000BE00093A60900E90093A7090F910895D8
:00000001FF
